:020000040800F2
:1000000000800120452800085516000857160008F2
:10001000591600085B1600085D1600080000000075
:100020000000000000000000000000005F16000853
:10003000611600080000000063160008651600083D
:10004000952800089528000895280008952800089C
:10005000952800089528000895280008952800088C
:10006000952800089528000895280008952800087C
:10007000952800089528000895280008952800086C
:10008000952800089528000895280008952800085C
:10009000952800089528000895280008952800084C
:1000A000952800089528000895280008952800083C
:1000B000952800089528000895280008952800082C
:1000C000952800089528000895280008952800081C
:1000D000952800089528000895280008952800080C
:1000E00095280008952800089528000895280008FC
:1000F00095280008952800089528000895280008EC
:1001000095280008952800089528000895280008DB
:1001100095280008952800089528000895280008CB
:1001200095280008952800089528000895280008BB
:1001300095280008952800089528000895280008AB
:10014000952800089528000895280008952800089B
:10015000952800089528000895280008952800088B
:10016000952800089528000895280008952800087B
:100170009528000895280008952800080000000030
:080180009528000895280008ED
:1001880010B5054C237833B9044B13B10448AFF3C9
:1001980000800123237010BD100000200000000023
:1001A800F028000808B5034B1BB103490348AFF317
:1001B800008008BD0000000014000020F02800089E
:1001C80008B589B280B201F0A3F808BD10B582B0B5
:1001D800BDF8104000949BB292B289B280B201F08F
:1001E800C3F802B010BD08B5FFF7EAFF08BD2DE956
:1001F800F04F83B00F4616461D46BDF830300093C9
:10020800A5EB0108B8F1000FB8BFC8F10008A2EBD0
:100218000009B9F1000FB8BFC9F10009C84504DCED
:100228002B4615461E4607460846AF4205DC3346B0
:10023800064618462B463D461F46A7EB050B1FFAF8
:100248008BFB0FFA8BF4A0EB060ABAF1000FB8BFCC
:10025800CAF1000A04EBD4746410864221DB4FF023
:10026800FF3301930CE0009A31462846FFF7BBFFA5
:10027800A4EB0A04A3B21CB2002C0BDB01352DB28F
:10028800BD4211DCC845EEDD009A29463046FFF72D
:10029800AAFFEDE7019A164436B20BEB030424B229
:1002A800ECE701230193EBE703B0BDE8F08F00B55D
:1002B80083B00A4492B2013A009313B20246FFF7A0
:1002C80096FF03B05DF804FB00B583B0024492B218
:1002D800013A00930B4612B2FFF789FF03B05DF8AD
:1002E80004FB30B583B01D46BDF8183090420CD0E1
:1002F8001446A9421BD1904216DD021B92B201326C
:1003080012B22046FFF7E0FF08E0A94208DD4A1BC9
:1003180092B2013212B22946FFF7C9FF03B030BDCD
:100328002A460D461146F2E704461046E5E70093D3
:100338002B46FFF75CFFF1E72DE9F04F87B0074642
:100348000E4602929846019395B2C5F1010424B273
:10035800C5EBC53253001AB205921FFA81FB05EBB3
:100368000B01424609B2FFF73EFFABEB05014246DF
:1003780009B23846FFF737FFBFB2E819424631469F
:1003880000B2FFF730FF781B4246314600B2FFF754
:100398002AFF4FF0000A0123039353E00AF10105F5
:1003A800ADB20FFA85FA039B02339BB21AB20392DD
:1003B8001C4424B27B191BB2BDF808600BEB06097C
:1003C8000FFA89F9019A494604931846FFF70BFF7B
:1003D800A7EB05080FFA88F8019A49464046FFF747
:1003E80002FFABEB06090FFA89F9019A494604980E
:1003F800FFF7F9FE019A49464046FFF7F4FE07EB7E
:1004080006080FFA88F80BEB05090FFA89F9019A23
:1004180049464046FFF7E7FEBE1B36B2019A4946F9
:100428003046FFF7E0FEABEB05052DB2DDF8049092
:100438004A4629464046FFF7D6FE4A4629463046F0
:10044800FFF7D1FE029B9A450DDA002CA6DB029B32
:10045800013B1BB20293059B02339BB21AB2059271
:100468001C4424B29AE707B0BDE8F08F2DE9F04F9D
:1004780087B00390049117469946BDF84030019320
:1004880093B2C3F1010424B2C3EBC3335A0013B2CD
:1004980005934FF000080123029318E008F10108C2
:1004A8001FFA88F50FFA85F8029B02339BB21AB23D
:1004B80002921C4424B219F0040F16D119F0020F4D
:1004C8002BD119F0080F40D119F0010F55D1B845BB
:1004D8006BDA002CE2DB013F3FB2059B02339BB293
:1004E8001AB205921C4424B2D8E7BDF80CA005EB5B
:1004F8000A00BDF810601FFA87FB06EB0B01019A92
:1005080009B200B2FFF76FFE0AEB0B00A919019AB6
:1005180009B200B2FFF767FED0E7BDF80CA005EB03
:100528000A00BDF810601FFA87FBA6EB0B01019AC1
:1005380009B200B2FFF757FE0AEB0B00711B019AD4
:1005480009B200B2FFF74FFEBBE7BDF80C601FFA17
:1005580087FAA6EB0A00BDF810B005EB0B01019A6B
:1005680009B200B2FFF73FFE701B0AEB0B01019ABC
:1005780009B200B2FFF737FEA6E7BDF80C601FFA14
:1005880087FBA6EB0B00BDF810A0AAEB0501019AAA
:1005980009B200B2FFF727FE701BAAEB0B01019A04
:1005A80009B200B2FFF71FFE91E707B0BDE8F08F70
:1005B8002DE9F04F87B00390049116469B46BDF88D
:1005C8004430059393B2C3F1010424B2C3EBC3339F
:1005D8005A0013B20193BDF9403001339BB2029324
:1005E800B2464FF00008012518E0039BF818B3B293
:1005F800049AD11A5A0092B2029B1A44059B12B26D
:1006080009B200B2FFF753FE27E0564506D01BF0AB
:10061800010F35D11BF0020F44D1B246B04554DA70
:10062800002C08DB013E36B2019B02339BB21AB2A2
:1006380001921C4424B21FFA88F909F10107BFB2DC
:100648000FFA87F80235ABB21DB21C4424B2731CF2
:100658009845DADA1BF0010FC7D11BF0020FD4D08E
:10066800039BD81BB3B2049AD11A5A0092B2029BC8
:100678001A44059B12B209B200B2FFF718FEC4E78C
:10068800039B03EB0A00049BA3EB09014FEA490211
:1006980092B2029B1A44059B12B209B200B2FFF74C
:1006A80006FEB7E7039BA3EB0A00049BA3EB090133
:1006B8004FEA490292B2029B1A44059B12B209B250
:1006C80000B2FFF7F4FDB246A8E707B0BDE8F08F27
:1006D800F0B583B006460C4615461F4692B2891AF5
:1006E800520092B2013212B209B2FFF7E0FD01974F
:1006F8000023009303232A4621463046FFF758FF7C
:1007080003B0F0BD2DE9F04104460E4690461F4661
:10071800BDF818502B46FFF7D7FDF11989B20139FA
:100728002B46424609B22046FFF7CEFD2B463A46F5
:1007380031462046FFF7BBFD04EB080080B20138C4
:100748002B463A46314600B2FFF7B1FDBDE8F081CD
:100758002DE9F04F87B004900D461F46BDF9403093
:10076800BDF844803E469742A8BF164606EBD676AB
:1007780071100291994269DABDF81060BDF80890CD
:1007880006EB09031CB21FFA82FB4FEA490A1FFA5B
:100798008AFAABEB0A031BB21A464346059229466E
:1007A80003942046FFF790FDADB2BFB2EC19A4B296
:1007B800611E4346059A09B20398FFF785FD4D442B
:1007C8002DB2A7EB0A073FB243463A46294604989A
:1007D800FFF76DFD06EB0B0A1FFA8AFA0AF1FF30E4
:1007E80043463A46294600B2FFF761FDCDF800803E
:1007F8000123029E32462946DDF80CB05846FFF721
:1008080035FEAAEB0907BFB2013F3FB2CDF8008021
:100818000223324629463846FFF728FEA4EB09048E
:10082800A4B2013C24B2CDF800800423324621460C
:100838003846FFF71BFECDF80080082332462146D4
:100848005846FFF713FE07B0BDE8F08F029393E711
:100858002DE9F04F85B08B461D46BDF93830BDF8FF
:100868003CA02E469542A8BF164606EBD6767610D3
:100878009E4235DA84B2B7B2E31918B21FFA82F889
:100888004FEA47091FFA89F9A8EB0902CDF800A039
:100898002B4612B259460390FFF798FC04EB080068
:1008A80080B2C01B80B201385F443FB2A5EB090596
:1008B800ADB2013D2DB2CDF804A00095012332461A
:1008C800394600B2FFF774FECDF804A00095022364
:1008D800324639460398FFF76BFE05B0BDE8F08F46
:1008E8001E46C7E72DE9F04782B00746884691467D
:1008F8009A46BDF92850BDF92C60BDF830400094E7
:10090800FFF7EFFC009433462A4651464846FFF766
:10091800E8FC009443463A4631462846FFF7E1FC96
:1009280002B0BDE8F0872DE9F04F89B08846029300
:10093800BDF94870BDF94C100191BDF850100091F7
:10094800984505DCCDF808809846134602461846B7
:10095800019B984505DCCDF8048098463B46074640
:1009680018460299019CA14204DC019102943B467D
:1009780017461A46019B43452BD092B20392BFB249
:10098800D31B1BB29C4602991FFA81FBBDF8049049
:10099800ABEB09031BB2049380B2C51B2DB21FFA3F
:1009A80088F3A3EB09090FFA89F9801A02B20692B3
:1009B800A3EB0B031BB20593414525D00BF1FF3B7D
:1009C8000FFA8BFB019C0026B246CDF81C80E0464E
:1009D80027E0974201DC11DB3A46904203DBB8423C
:1009E80010DD074610463A1A92B20132009B12B245
:1009F8000199FFF769FC09B0BDE8F08F13463A4644
:100A08001F46EAE71046EEE7DDF808B0DAE7121A03
:100A180092B20132009B12B22146FFF755FC013415
:100A280024B25C4510DC049B9AFBF3F23A4412B200
:100A380096FBF9F0384400B2C2442E448242E6DC08
:100A4800034610461A46E2E7DDF81C80069A9346EC
:100A5800029BE61A06FB02F6AA46019BE31A03FB71
:100A680005F509E0121A92B20132009B12B2214632
:100A7800FFF72AFC013424B2A045BCDB059B96FB9A
:100A8800F3F2039B1A4412B295FBF9F0384400B212
:100A98005E4455448242E5DC034610461A46E1E7C7
:100AA80000B583B0064BB3F90030064AB2F900200E
:100AB800009000210846FFF789FB03B05DF804FBAE
:100AC80038000020340000202DE9F04F83B00446A0
:100AD800454BB3F900A05646444BB3F900B05D4608
:100AE8000020FFF7DDFF0BF1FF38002709E00BF1CD
:100AF800FF3300941BB23AB200210846FFF7F1FB1E
:100B08000637B742F3DB0AF1FF39002709E00AF19B
:100B1800FF3200943BB212B200210846FFF7E1FB16
:100B28000637AF42F3DB0020FFF7BAFF00270AE0E1
:100B38000BF1FF3300941BB23AB200210FFA89F08F
:100B4800FFF7CFFB0637B742F2DB002708E0009437
:100B58003BB2002211460FFA89F0FFF7C2FB0637B5
:100B6800AF42F4DB0020FFF79BFF002708E000946A
:100B780000233AB20FFA88F11846FFF7B2FB06379E
:100B8800B742F4DB00270AE00AF1FF3200943BB2D7
:100B980012B20FFA88F10020FFF7A3FB0637AF4225
:100BA800F2DB0020FFF77CFF002709E00094002318
:100BB8003AB20FFA88F10FFA89F0FFF792FB06377D
:100BC800B742F3DB002609E0009433B200220FFAA3
:100BD80088F10FFA89F0FFF784FB0636AE42F3DBA3
:100BE80003B0BDE8F08F00BF3400002038000020BB
:100BF8002DE9F04782468946114BB3F900804646F5
:100C0800104BB3F900502F460020FFF749FF00248E
:100C180006E05346424621B20020FFF755FB053453
:100C2800BC42F6DB002406E04B462A46002120B2EF
:100C3800FFF73DFB0534B442F6DBBDE8F08700BFA3
:100C480034000020380000202DE9F04182B08046B1
:100C5800154CB4F9006006EBD6767610134FB7F949
:100C6800005005EBD5756D100020FFF719FFB7F997
:100C78000070B4F900309F42A8BF1F4602240EE05E
:100C880004EBD471C1F34F01701A691A22B2CDF87E
:100C98000080134609B200B2FFF734FD0634BC42A7
:100CA800EEDB02B0BDE8F0813400002038000020FF
:100CB8002DE9F04F83B0824689461E4CB4F9008076
:100CC80008EBD8784FEA680808F1FF381A4DB5F9EB
:100CD800007007EBD7777F10013F0020FFF7E0FE99
:100CE800B5F90050B4F900309D42A8BF1D461BE07D
:100CF80005EBD574C4F34F04A8EB040636B23C1BCD
:100D080024B20FFA85FBCDF800A05B465A4621466F
:100D18003046FFF75BFACDF800905B465A4621460D
:100D28003046FFF7EFFC063D002DE1DC03B0BDE8DF
:100D3800F08F00BF34000020380000202DE9F84F64
:100D4800804689460E4BB3F900A00E4BB3F90070EC
:100D5800834646000020FFF7A3FE454609E04B46C0
:100D6800424621B228B2FFF7B3FC3444BC42F6DB5A
:100D78003544554501DA5C46F8E7BDE8F88F00BF11
:100D880034000020380000202DE9F04780468946CD
:100D980047000D4BB3F900A082440C4BB3F9006037
:100DA8000644002509E04B46424621B228B2FFF727
:100DB800C3FA3C44B442F6DB3D44554501DA00240D
:100DC800F8E7BDE8F08700BF3400002038000020B5
:100DD800F0B585B0184BB3F9005005EBD5756D101B
:100DE800013D164BB3F9006006EBD6767610013E4E
:100DF8000020FFF755FE2F46B542A8BF374600240E
:100E080016E0B3B2A0B2191A1FFA85FCACEB0002C7
:100E180003441BB26044C4F3C40CCDF808C001936A
:100E280000B2009012B209B228B2FFF75BFD053498
:100E3800BC42E6DB05B0F0BD3400002038000020DD
:100E48002DE9F04F87B02A4BB3F900B00BEBDB7BF1
:100E58004FEA6B0B0BF1FF3B264BB3F9003003EB6A
:100E6800D3735B10013B1C4605930020FFF718FE67
:100E780023465C45A8BF5B461F4633E00FFA8BF854
:100E8800BDF81440BDB2A4EB05090FFA89F91FFAA1
:100E98008BF3A3EB050A0FFA8AFA2C4424B21D44FB
:100EA8002DB2FE0006F4FC66C7F3C4033343029375
:100EB800019400952346524649464046FFF733FDC4
:100EC8003B0223F4FF6323F007031BB233439BB2B7
:100ED8000293019400952346524649464046FFF73F
:100EE80001FD053F0A2FC9DC07B0BDE8F08F00BF40
:100EF80034000020380000202DE9F04383B0214C55
:100F0800B4F9007007EBD7777F10013F1E4DB5F994
:100F1800006006EBD6767610013E0020FFF7C0FD94
:100F2800B5F90080B4F900309845A8BF98464FF449
:100F3800C06999FBF8F900252C460EE04FEA052C0C
:100F48000CF4784CCDF804C043F3CF030093134658
:100F580009B200B2FFF7FCFB063444450EDA04EB95
:100F6800D4714D44C1F34F01781A80B2711A89B215
:100F780022B22346002CE1DAE31DDFE703B0BDE827
:100F8800F08300BF34000020380000202DE9F04134
:100F980082B0214DB5F9007007EBD7777F10013F7C
:100FA8001E4CB4F9006006EBD6767610013E0020A0
:100FB800FFF776FDB4F90040B5F900309C42A8BFB0
:100FC8001C464FF4C06898FBF4F84FF480750EE0A7
:100FD8004FEAC50C0CF4FC6CCDF804C043F3CF0306
:100FE8000093134609B200B2FFF732FC063C142CFA
:100FF8000FDD04EBD471A5EB0805C1F34F01781A96
:1010080080B2711A89B222B22346002CE0DAE31DBD
:10101800DEE702B0BDE8F08134000020380000208F
:1010280008B50020FFF73CFD4FF47840FFF738FD86
:101038004FF4FC60FFF734FD1F20FFF731FD00205F
:10104800FFF72EFD08BD08B5FFF7EAFF40F2FF7075
:10105800FFF73AFD1F214FF47840FFF7C9FD4FF421
:10106800FC60FFF7F1FD4FF61F014FF6E070FFF748
:101078001FFE4FF61F010A20FFF760FE4FF6FF71B3
:101088000A20FFF781FEFFF7A3FEFFF7D9FEFFF75F
:1010980033FFFFF77BFF08BD08B500224021024857
:1010A80000F0A0FC08BD00BF0004004808B50122FC
:1010B8004021024800F096FC08BD00BF000400482B
:1010C80010B5074C00228021204600F08BFC05203B
:1010D80000F034FB01228021204600F083FC10BD83
:1010E8000008004810B582B002AC04F8010D0022D7
:1010F8004FF400714FF0904000F074FC4FF0FF3354
:1011080001222146024801F0A5FA02B010BD00BF35
:101118003C00002038B504460D4601224FF400710A
:101128004FF0904000F05EFC4FF0FF33AAB221462A
:10113800014801F08FFA38BD3C000020F8B5461C84
:1011480002780AE039462046FFF7E4FF3C4410E005
:1011580000F0F4FA34462A462646531EDDB292B110
:10116800344614F8020BFFF7BDFF767816F07F07B8
:10117800E8D116F0800FEED0661C2078FF28E7D162
:101188004FF4FA70E4E7F8BDF0B583B005460C46B5
:1011980017461E462A20FFF7A5FF00238DF80430C6
:1011A800114A127815448DF805508DF806303A44E6
:1011B8008DF8072004210DEB0100FFF7ABFF2B2072
:1011C800FFF790FF094B1B781C448DF8054033440A
:1011D8008DF8073004210DEB0100FFF79BFF2C2051
:1011E800FFF780FF03B0F0BD2C0000203000002086
:1011F80000B583B000238DF8073000F003002B4BB7
:101208001870032813D8DFE800F002213240C02309
:101218008DF807308023264A1380264A1380264BF0
:101228001A78264B1A70264B1A78264B1A70FFF735
:1012380033FF3620FFF756FF01210DF10700FFF7B6
:1012480069FFFFF733FF03B05DF804FBA0238DF8B7
:1012580007308023174A1380154A1380164B1A78D3
:10126800184B1A70164B1A78144B1A70DFE7802344
:101278000F4A13800F4A13800F4B1A780F4B1A70BE
:101288000F4B1A780F4B1A70D1E760238DF807308F
:101298008023084A1380064A1380074B1A78094BA3
:1012A8001A70074B1A78054B1A70C0E732000020F5
:1012B80038000020340000202D0000202C000020E1
:1012C800310000203000002038B50546FFF7E4FE65
:1012D800FFF7F6FE0B4C2046FFF730FF04F138000D
:1012E800FFF72CFF04F14800FFF728FF064B022206
:1012F8001A70064B03221A702846FFF779FFFFF78A
:10130800D5FE38BD082900082D0000203100002036
:10131800134BB3F90030984204DA124BB3F900309A
:10132800994200DB704770B582B016460D460446F8
:10133800FFF7B2FEE0B2E9B24B1C421CDBB2D2B2FC
:10134800FFF722FF330A8DF804308DF8056002217B
:1013580001A8FFF7DFFEFFF7A9FE02B070BD00BFCE
:1013680034000020380000202DE9F04182B01D46ED
:10137800BDF82080254BB3F90030984243DA044683
:101388000F461646224AB2F9002091423BDA31183C
:1013980001398B4202DC9EB2361AB6B2EB19013B18
:1013A8009A4202DC95B2ED1BADB2FFF775FEE0B2D2
:1013B800F9B28219D2B24B19DBB2013B013ADBB266
:1013C800D2B2FFF7E1FE4FEA18238DF804308DF80A
:1013D800058001224FF400714FF0904000F002FBAD
:1013E8000CE04FF0FF33022201A90A4801F032F95C
:1013F800013CA4B2002CF4D1013DADB20DB134468C
:10140800F8E7FFF753FE02B0BDE8F0813400002092
:10141800380000203C000020F0B58BB00024059473
:1014280006940794089409942B4BDA6C42F08002D6
:10143800DA64DA6C02F080020192019ADA6C42F006
:101448000102DA64DA6C02F001020292029ADA6CA2
:1014580042F00402DA64DA6C02F004020392039A9E
:10146800DA6C42F00202DA64DB6C03F002030493E4
:10147800049B1A4F22468021384600F0B3FA2246D0
:101488004FF400714FF0904000F0ACFA144E224631
:101498004021304600F0A6FA8023059301250695E1
:1014A8000794089405A9384600F0B8F94FF400737A
:1014B800059306950794089405A94FF0904000F00D
:1014C800ADF94023059306950794089405A930467D
:1014D80000F0A4F90BB0F0BD00100240000800486D
:1014E8000004004872B6FEE708B50F480F4B0360CA
:1014F8004FF482734360002383604FF4E062C2605C
:10150800036143614FF400728261C3610362436205
:1015180083620722C26203630823436301F02BF846
:1015280000B908BDFFF7DEFF3C0000200030014095
:1015380000B597B04022002106A801F0CDF900239C
:1015480000930193029303930493102305930123BB
:101558000B9360230D9305A800F03CFB90B90F2373
:10156800009300210191029103910491684600F0D3
:101578004DFE48B94FF4007000F042FA30B917B088
:101588005DF804FBFFF7AEFFFFF7ACFFFFF7AAFF1C
:1015980008B500F0B1F8FFF7CBFFFFF73DFFFFF705
:1015A800A3FF0020FFF790FE0020FFF779FAFFF76E
:1015B8004AFDFEE782B00A4B1A6E42F001021A6633
:1015C8001A6E02F001020092009A9A6D42F080525F
:1015D8009A659B6D03F080530193019B02B070479D
:1015E8000010024000B589B00023039304930593CB
:1015F800069307930268144B9A4202D009B05DF82B
:1016080004FB03F560431A6E42F480521A661A6EA0
:1016180002F480520192019ADA6C42F00102DA6413
:10162800DB6C03F001030293029BA02303930223C4
:101638000493032306930523079303A94FF09040CF
:1016480000F0ECF8DAE700BF00300140FEE7FEE703
:10165800FEE7FEE7FEE770477047704708B500F001
:101668005BF808BD0F49D1F8883043F47003C1F81E
:1016780088300D4B1A6842F001021A600020986009
:101688001A6822F0A85222F410221A604FF48052ED
:10169800DA601A6822F480221A6098614FF00063B9
:1016A8008B60704700ED00E000100240104B1B7883
:1016B8000BB90120704710B504464FF47A70B0FB9F
:1016C800F3F30C4A1068B0FBF3F000F091F868B936
:1016D8000F2C01D901200AE0002221464FF0FF30EB
:1016E80000F052F8024B5C60002000E0012010BDC1
:1016F800040000200000002010B5032000F032F89C
:101708000020FFF7D3FF10B10124204610BD044686
:10171800FFF750FFF9E70000034B1B78034A1168F5
:101728000B441360704700BF04000020A000002095
:10173800014B1868704700BFA000002038B5044668
:10174800FFF7F6FF0546B4F1FF3F02D0044B1B78C4
:101758001C44FFF7EDFF401BA042FAD338BD00BF81
:1017680004000020074AD36823F4E0631B041B0C21
:10177800000200F4E060184340F0BF6040F400301D
:10178800D060704700ED00E030B4174BDB68C3F35E
:101798000223C3F10704042C28BF04241D1D062DB1
:1017A80018D9033B4FF0FF3505FA04F421EA040188
:1017B800994005FA03F322EA0303194300280BDBD7
:1017C8000901C9B200F1604000F5614080F80013DA
:1017D80030BC70470023E5E700F00F000901C9B2EB
:1017E800024B1954F4E700BF00ED00E014ED00E0EF
:1017F8000138B0F1807F0AD2064B5860064AF021C2
:1018080082F823100020986007221A607047012090
:10181800704700BF10E000E000ED00E0F0B583B0D5
:1018280000233FE0C66A26EA0406C5F3C0049C40CC
:101838003443C4625FE0062400E00024B4403C4323
:101848000235644E46F82540634C2568D44304EAC3
:1018580005064F6817F4803F01D042EA05065E4D41
:101868002E606D6804EA05064F6817F4003F01D042
:1018780042EA0506584D6E60AD6804EA05064F68F1
:1018880017F4801F01D042EA0506534DAE60ED689B
:101898002C404E6816F4001F01D042EA05044E4A57
:1018A800D46001330A6832FA03F400F0918001240D
:1018B8009C402240F5D04D686E1E012E03D9112D93
:1018C80001D0122D12D186685F000325BD4026EA9B
:1018D8000506CD68BD4035438560466826EA04069E
:1018E8004D68C5F300159D40354345604D6805F0CA
:1018F8000306032E96D0C5685F000324BC40E4436A
:1019080025408E68BE402E43C6604D68022D01D02A
:10191800122D13D1DE08083650F826E003F007052B
:101928004FEA850C0F2505FA0CF52EEA050E0D6910
:1019380005FA0CF545EA0E0540F8265005682C40D6
:101948004D6805F00305BD402C4304604C6814F055
:10195800805FA6D0214C256E45F001052566246ED2
:1019680004F001040194019C9D08AE1C194C54F824
:10197800267003F00304A6000F24B44027EA0407E6
:10198800B0F1904F3FF459AF154CA04216D004F572
:101998008064A04214D004F58064A04212D004F5FB
:1019A8008064A04210D004F58064A0420ED004F5F3
:1019B8008064A0423FF43FAF07243FE701243DE79E
:1019C80002243BE7032439E7042437E7052435E7F5
:1019D80003B0F0BD000001400004014000100240C7
:1019E800000400480AB981627047816170470000AD
:1019F800024B186800F4C060704700BF00700040D8
:101A0800B0F5007F0FD01F4B1B6803F4C063B3F51C
:101A1800806F34D01B4A136823F4C06343F4806397
:101A2800136000207047174B1B6803F4C063B3F5BD
:101A3800007F22D0134A136823F4C06343F4007371
:101A48001360114B1A68322303FB02F30F4AA2FBFF
:101A580003239B0C013300E0013B0A4A526912F44C
:101A6800806F01D0002BF7D1064B5B6913F4806FB0
:101A780001D10020704703207047002070470020E4
:101A8800704700BF007000400000002083DE1B4349
:101A980030B583B00546204B9B6D13F0805F0BD0AB
:101AA800FFF7A6FFB0F5007F17D0802D1FD82DD0E7
:101AB800702D2DD000211BE0174CA36D43F08053EF
:101AC800A365A36D03F080530193019BFFF790FF7B
:101AD800A36D23F08053A365E4E7802D03D9A02DDF
:101AE80003D9022104E0002102E0012100E00321E2
:101AF8000A4A136823F007030B431360136803F0C3
:101B080007038B4206D0012003B030BD0221EFE766
:101B18000121EDE70020F7E7001002400020024015
:101B2800284A9368D26802F0030213F00C030AD023
:101B38000C2B06D0042B1FD0082B20D000200246E7
:101B480010E0012AF6D11F4A126812F0080F0CD1D2
:101B58001C4AD2F89420C2F303221B4951F82220D0
:101B680043B100200C2B0DD07047164A1268C2F3FF
:101B78000312F2E71046F5E714480022F2E714488A
:101B88000022EFE70F4BDB6803F00303022B15D0AD
:101B9800032B15D00B4BD868C0F302100130D9685D
:101BA800C1F3062102FB01F2B2FBF0F2D868C0F3E0
:101BB800416001304000B2FBF0F0D5E7034AE9E7A5
:101BC800034AE7E7001002407C2900080024F400DB
:101BD80000127A00002800F00083F0B583B00446B4
:101BE800AF4B9D6805F00C05DE6806F00306036838
:101BF80013F0100F5BD0E5B10C2D18D0A369002BA2
:101C080000F0BC80A64A136843F001031360FFF795
:101C18008FFD0746A24B1B6813F0020F40F09B8014
:101C2800FFF786FDC01B0228F4D90323E1E2012E49
:101C3800E4D19B4B1B6813F0020F03D0A369002B60
:101C480000F0CE82206A964B1B6813F0080F5CD018
:101C5800934B1B6803F0F00398425DD8904B1A68C9
:101C680042F008021A601A6822F0F002216A0A4358
:101C78001A605A6822F47F42E16942EA01225A60F6
:101C8800002D61D0FFF74CFF854B9B68C3F303130E
:101C9800844AD35C03F01F03D840834B1860834BFE
:101CA8001868FFF703FD0346002840F0A282236866
:101CB80013F0010F00F08180082D75D00C2D71D024
:101CC8006368B3F5803F00F09780B3F5A02F00F06C
:101CD8009980734B1A6822F480321A601A6822F4C9
:101CE80080221A606368002B00F09980FFF720FDBE
:101CF80007466B4B1B6813F4003F5ED1FFF718FDD6
:101D0800C01B6428F5D9032373E2654BD3F89430DC
:101D18001B0903F0F0039FE7FFF7BAFE002840F025
:101D280061825F4B1A6842F008021A601A6822F052
:101D3800F002216A0A431A605A6822F47F42E16974
:101D480042EA01225A609DE7206AFFF7A1FE0028B7
:101D580098D001234DE2524B1A6842F008021A60EB
:101D68001A6822F0F002216A0A431A605A6822F4BB
:101D78007F42E16942EA01225A6098E7484A1368BB
:101D880023F001031360FFF7D3FC0746444B1B689D
:101D980013F0020F8BD0FFF7CBFCC01B0228F5D93C
:101DA800032326E2032E8BD13D4B1B6813F4003F1F
:101DB80003D06368002B00F01782236813F0020F2A
:101DC8004FD0042D3CD00C2D38D0E368002B78D0B0
:101DD800334A136843F480731360FFF7A9FC06467F
:101DE8002F4B1B6813F4806F62D1FFF7A1FC801B97
:101DF8000228F5D90323FCE1294A136843F4803308
:101E080013606FE703F18043A3F53C331A6842F48B
:101E180080221A601A6842F480321A6062E7FFF77B
:101E280087FC07461E4B1B6813F4003FC5D0FFF71D
:101E38007FFCC01B6428F5D90323DAE1022EC4D144
:101E4800174B1B6813F4806F03D0E368002B00F076
:101E5800CD81134A536823F0F853216943EA01639B
:101E68005360236813F0080F56D06369002B3CD0E9
:101E78000B4AD2F8943043F00103C2F89430FFF7CC
:101E880057FC0646064BD3F8943013F0020F43D1A3
:101E9800FFF74EFC801B0228F4D90323A9E100BFF9
:101EA80000100240AC2900080000002008000020B3
:101EB800B84A536823F0F853216943EA0163536031
:101EC800CFE7B44A136823F480731360FFF730FC3C
:101ED8000646B04B1B6813F4806FC2D0FFF728FC8E
:101EE800801B0228F5D9032383E1AA4AD2F894304B
:101EF80023F00103C2F89430FFF71AFC0646A54BFD
:101F0800D3F8943013F0020F06D0FFF711FC801BB2
:101F18000228F4D903236CE1236813F0040F7AD064
:101F28009C4B9B6D13F0805F0BD19A4B9A6D42F0DE
:101F380080529A659B6D03F080530193019B0126A3
:101F480000E00026944B1B6813F4807F26D0A3681A
:101F5800012B37D0052B3DD08E4BD3F8902022F0A3
:101F68000102C3F89020D3F8902022F00402C3F8AD
:101F78009020A368002B3BD0FFF7DAFB0746854B80
:101F8800D3F8903013F0020F44D1FFF7D1FBC01BF8
:101F980041F288339842F2D903232AE17E4A136832
:101FA80043F480731360FFF7C3FB07467A4B1B6843
:101FB80013F4807FCBD1FFF7BBFBC01B0228F5D9F8
:101FC800032316E1734AD2F8903043F00103C2F8B4
:101FD8009030CEE76F4BD3F8902042F00402C3F85C
:101FE8009020D3F8902042F00102C3F89020C0E777
:101FF800FFF79EFB0746674BD3F8903013F0020FAC
:1020080008D0FFF795FBC01B41F288339842F2D9FC
:102018000323EEE06EBBA36A002B00F0E980022BDD
:102028002DD00C2D00F0EE805A4B1A6822F08072E9
:102038001A601B6813F0205F04D1564AD36823F056
:102048000303D360534AD36823F0887323F480339F
:10205800D360FFF76DFB04464E4B1B6813F0007FFF
:1020680000F0B980FFF764FB001B0228F4D90323B2
:10207800BFE0484A936D23F080539365CBE7454B07
:10208800DB6803F00301E26A91420FD00C2D00F0E7
:10209800B380404B1B6813F0806F40F0AF803D4B1E
:1020A8001B6813F0805F2DD00123A2E003F07002BB
:1020B800216B0139B2EB011FE8D103F4FE42616BD9
:1020C800B2EB012FE2D103F40031A26B073A18BF3B
:1020D80001229142DAD103F4C001E26B5208013ABD
:1020E800B1EB425FD2D103F0C063226C5208013ACF
:1020F800B3EB426FCAD1274B1B6813F0007F51D056
:10210800002376E0234A136823F080731360FFF7F7
:102118000FFB05461F4B1B6813F0007F06D0FFF727
:1021280007FB401B0228F5D9032362E0194AD3684C
:102138001A491940E36A206B013843EA0013606BBF
:1021480043EA0023E06B4008013843EA4053206C1F
:102158004008013843EA4063A06B000943EA404362
:102168000B43D360136843F080731360D36843F064
:102178008073D360FFF7DCFA0446064B1B6813F044
:10218800007F0DD1FFF7D4FA001B0228F5D90323ED
:102198002FE000BF00100240007000408C809DF9C5
:1021A800002326E0184B1A6842F080721A60DA6839
:1021B80042F08072DA60FFF7BBFA044604E0FFF7EA
:1021C800B7FA001B02281BD80F4B1B6813F0007FBF
:1021D800F5D000230DE000230BE0012318467047DB
:1021E800012306E0012304E0012302E0012300E0CB
:1021F8000023184603B0F0BD0123FAE70123F8E7EE
:102208000323F6E70123F4E700100240002800F05A
:102218009B8070B504464E4B1B6803F007038B4246
:102228000CD24B4A136823F007030B43136013685F
:1022380003F007038B4201D0012070BD0D462368CF
:1022480013F0010F39D06368032B09D0022B26D075
:1022580063BB404A126812F0020F06D10120ECE776
:102268003C4A126812F0007F70D03A498A6822F01E
:10227800030213438B60FFF75BFA0646354B9B68F6
:1022880003F00C036268B3EB820F16D0FFF750FA25
:10229800801B41F288339842F0D90320CDE72D4ABC
:1022A800126812F4003FE0D10120C6E7294A1268FB
:1022B80012F4806FD9D10120BFE7236813F0020F11
:1022C80006D0244A936823F0F003A1680B43936077
:1022D8001F4B1B6803F00703AB420CD91C4A136859
:1022E80023F007032B431360136803F00703AB4283
:1022F80001D00120A1E7236813F0040F06D0154A86
:10230800936823F4E063E1680B439360236813F058
:10231800080F07D00F4A936823F46053216943EAF2
:10232800C1039360FFF7FCFB0A4B9B68C3F30313DD
:10233800094AD35C03F01F03D840084B1860084BC8
:102348001868FFF7B3F978E701207047012074E7B0
:102358000020024000100240AC29000800000020C4
:10236800080000202DE9F04383B004460F461646C6
:102378001D46FFF7DDF90A9B181A00EB0508FFF761
:10238800D7F981462A4B1B68C3F3CB3308FB03F309
:10239800019323689B6837EA03030CBF01230023DA
:1023A800B34240D0B5F1FF3FF3D0FFF7C1F9A0EB3E
:1023B800090040450AD2B8F1000F07D0019B0BB9BC
:1023C8004FF00008019B013B0193E2E72268536844
:1023D80023F0E00353606368B3F5827F0BD0A36AF0
:1023E800B3F5005F14D0012384F85D30002384F82E
:1023F8005C30032018E0A368B3F5004F02D0B3F5B2
:10240800806FECD12268136823F040031360E6E77D
:102418002268136823F4005313602268136843F496
:1024280000531360DFE7002003B0BDE8F08300BF6E
:10243800000000202DE9F04383B006460C461546FF
:102448001F46FFF775F90A9B181A00EB0708FFF7F4
:102458006FF981462D4B1B6803EB8303C3EBC30362
:102468001B0D08FB03F3019302E0B7F1FF3F0BD10B
:10247800326893682340AB4244D0B4F5C06FF4D1BE
:10248800002DF2D1137BF0E7FFF752F9A0EB09001A
:1024980040450AD2B8F1000F07D0019B0BB94FF0A5
:1024A8000008019B013B0193E2E73268536823F07F
:1024B800E00353607368B3F5827F0BD0B36AB3F55A
:1024C800005F14D0012386F85D30002386F85C3065
:1024D800032018E0B368B3F5004F02D0B3F5806F5E
:1024E800ECD13268136823F040031360E6E73268E2
:1024F800136823F4005313603268136843F40053DD
:102508001360DFE7002003B0BDE8F083000000207F
:1025180070B582B004460D46164600920B4600225E
:102528004FF4C051FFF786FFB8B900962B4600223A
:1025380080212046FFF716FFB8B900962B460022E7
:102548004FF4C0612046FFF775FF034650B1236E74
:1025580043F020032366032304E0236E43F02003A3
:1025680023660323184602B070BD236E43F0200390
:1025780023660323F6E700286AD010B50446436AA9
:1025880033B94368B3F5827F05D00023C36102E005
:102598000023036143610023A36294F85D30002B9C
:1025A8004DD0022384F85D302268136823F040037D
:1025B8001360E368B3F5E06F47D90022B3F5706F95
:1025C80004D0B3F5E06F01D00023A362636803F47D
:1025D8008273A16801F404410B43216901F00201EF
:1025E8000B43616901F001010B43A16901F400711A
:1025F8000B43E16901F038010B43216A01F08001C6
:102608000B43A16A01F4005120680B430360638BFC
:1026180003F00403616A01F010010B43616B01F0E0
:1026280008010B43E16801F470610B43216813430F
:102638004B6000202066012384F85D3010BD84F8CB
:102648005C302046FEF7CEFFABE74FF48052B5E78B
:10265800012070472DE9F04182B090F85C40012CD0
:1026680000F0E9801E46154688460446012380F896
:102678005C30FFF75DF8074694F85D20D2B2012A76
:1026880009D00220012384F85D30002384F85C30EF
:1026980002B0BDE8F081B8F1000F00F0BE80002D57
:1026A80000F0BD80032384F85D3000232366C4F85E
:1026B8003880A587E5872364A4F84430A4F8463019
:1026C8002365E364A368B3F5004F1CD023681A6838
:1026D80012F0400F03D11A6842F040021A60E36812
:1026E800B3F5E06F38D963680BB1012D20D1A26B27
:1026F80023681288DA60A36B0233A363E38F013B7C
:102708009BB2E38714E02268136823F04003136048
:102718002268136843F480431360D7E7FFF708F88B
:10272800C01BB04202D3B6F1FF3F7AD1002E7AD057
:10273800E38F9BB2002B5BD023689A6812F0020FDC
:10274800ECD0A26B1288DA60A36B0233A363E38F29
:10275800013B9BB2E387EBE763680BB1012D30D1F6
:10276800E38F9BB2012B0BD9A26B23681288DA6026
:10277800A36B0233A363E38F023B9BB2E38720E0A2
:10278800A26B236812781A73A36B0133A363E38FD8
:10279800013B9BB2E38714E0A36B1B781373A36B15
:1027A8000133A363E38F013B9BB2E38709E0FEF7A4
:1027B800BFFFC01BB04202D3B6F1FF3F35D1002E98
:1027C80035D0E38F9BB29BB12268936813F0020F58
:1027D800EDD0E38F9BB2012BDED9A36B1B88D360AE
:1027E800A36B0233A363E38F023B9BB2E387E8E763
:1027F8003A4631462046FFF78BFE08B12023236670
:10280800A36833B901932368DA6801929B6801933E
:10281800019B236E6BB9002034E7012032E70120C9
:1028280030E703202EE703202CE703202AE70320C4
:1028380028E7012026E702202AE70000DFF834D045
:10284800FEF710FF002103E00B4B5B5843500431A7
:102858000A480B4B42189A42F6D30A4A02E0002370
:1028680042F8043B084B9A42F9D300F011F8FEF7FE
:102878008FFEFEE700800120D82900080000002014
:102888001000002010000020A4000020FEE7000037
:1028980070B50D4E0D4CA41BA4100025A54209D1FE
:1028A8000B4E0C4C00F020F8A41BA4100025A542E8
:1028B80005D170BD56F8253098470135EEE756F832
:1028C800253098470135F2E7C8290008C8290008CB
:1028D800C8290008CC29000802440346934200D1C5
:1028E800704703F8011BF9E7F8B500BFF8BC08BC4E
:1028F8009E467047F8B500BFF8BC08BC9E467047B6
:102908000F0180961180FFB103012C2DB203012C19
:102918002DB306012C2D012C2DB40107C003A202F2
:1029280084C101C5C2020A00C3028A2AC4028AEE0F
:10293800C5010E20003A0105022A040000007F2B81
:10294800040000007F00000004E010021C0712379A
:1029580032292D29252B3900010310E110031D0709
:10296800062E2C292D2E2E373F0000021013800A28
:1029780029806400A0860100400D0300801A06002B
:1029880000350C0040420F0080841E0000093D0005
:1029980000127A000024F40000366E010048E801B5
:1029A800006CDC02000000000000000001020304CB
:1029B80006070809000000000102030400000000E7
:0829C800AD0100080000000051
:0829D00089010008000000006D
:1029D80000093D0001000000100000000000000098
:040000050800284582
:00000001FF
