:020000040800F2
:1000000000800120FD1D00080D0C00080F0C0008E9
:10001000110C0008130C0008150C0008000000006B
:10002000000000000000000000000000170C0008A5
:10003000190C0008000000001B0C00081D0C000833
:100040004D1E00084D1E00084D1E00084D1E0008E4
:100050004D1E00084D1E00084D1E00084D1E0008D4
:100060004D1E00084D1E00084D1E00084D1E0008C4
:100070004D1E00084D1E00084D1E00084D1E0008B4
:100080004D1E00084D1E00084D1E00084D1E0008A4
:100090004D1E00084D1E00084D1E00084D1E000894
:1000A0004D1E00084D1E00084D1E00084D1E000884
:1000B0004D1E00084D1E00084D1E00084D1E000874
:1000C0004D1E00084D1E00084D1E00084D1E000864
:1000D0004D1E00084D1E00084D1E00084D1E000854
:1000E0004D1E00084D1E00084D1E00084D1E000844
:1000F0004D1E00084D1E00084D1E00084D1E000834
:100100004D1E00084D1E00084D1E00084D1E000823
:100110004D1E00084D1E00084D1E00084D1E000813
:100120004D1E00084D1E00084D1E00084D1E000803
:100130004D1E00084D1E00084D1E00084D1E0008F3
:100140004D1E00084D1E00084D1E00084D1E0008E3
:100150004D1E00084D1E00084D1E00084D1E0008D3
:100160004D1E00084D1E00084D1E00084D1E0008C3
:100170004D1E00084D1E00084D1E00080000000026
:080180004D1E00084D1E000891
:1001880010B5054C237833B9044B13B10448AFF3C9
:1001980000800123237010BD4000002000000000F3
:1001A800A81E000808B5034B1BB103490348AFF369
:1001B800008008BD0000000044000020A81E0008C0
:1001C80008B589B280B200F0FDF908BD10B582B05B
:1001D800BDF8104000949BB292B289B280B200F090
:1001E8001DFA02B010BD08B5FFF7EAFF08BD2DE9FA
:1001F800F04F87B007460E4602929846019395B293
:10020800C5F1010424B2C5EBC53253001AB20592F8
:100218001FFA81FB05EB0B01424609B2FFF7E3FF2A
:10022800ABEB0501424609B23846FFF7DCFFBFB227
:10023800E8194246314600B2FFF7D5FF781B42461F
:10024800314600B2FFF7CFFF4FF0000A01230393B6
:1002580053E00AF10105ADB20FFA85FA039B0233A8
:100268009BB21AB203921C4424B27B191BB2BDF88C
:1002780008600BEB06090FFA89F9019A49460493BD
:100288001846FFF7B0FFA7EB05080FFA88F8019AA0
:1002980049464046FFF7A7FFABEB06090FFA89F975
:1002A800019A49460498FFF79EFF019A494640463D
:1002B800FFF799FF07EB06080FFA88F80BEB05091B
:1002C8000FFA89F9019A49464046FFF78CFFBE1B91
:1002D80036B2019A49463046FFF785FFABEB050574
:1002E8002DB2DDF804904A4629464046FFF77BFFC9
:1002F8004A4629463046FFF776FF029B9A450DDAB3
:10030800002CA6DB029B013B1BB20293059B023328
:100318009BB21AB205921C4424B29AE707B0BDE812
:10032800F08F000000B583B0064BB3F90030064AE1
:10033800B2F90020009000210846FFF747FF03B0FC
:100348005DF804FB680000206400002008B5002266
:100358004021024800F022FE08BD00BF000400480A
:1003680008B501224021024800F018FE08BD00BF70
:100378000004004810B5074C00228021204600F0F8
:100388000DFE052000F0B6FC01228021204600F079
:1003980005FE10BD0008004810B582B002AC04F894
:1003A800010D00224FF400714FF0904000F0F6FD6F
:1003B8004FF0FF3301222146024801F027FC02B02A
:1003C80010BD00BFF80A002038B504460D460122CA
:1003D8004FF400714FF0904000F0E0FD4FF0FF3314
:1003E800AAB22146014801F011FC38BDF80A0020E4
:1003F800F8B5461C02780AE039462046FFF7E4FFC4
:100408003C4410E000F076FC34462A462646531E4B
:10041800DDB292B1344614F8020BFFF7BDFF7678CF
:1004280016F07F07E8D116F0800FEED0661C207812
:10043800FF28E7D14FF4FA70E4E7F8BDF0B583B0D0
:1004480005460C4617461E462A20FFF7A5FF00233F
:100458008DF80430114A127815448DF805508DF83E
:1004680006303A448DF8072004210DEB0100FFF710
:10047800ABFF2B20FFF790FF094B1B781C448DF82E
:10048800054033448DF8073004210DEB0100FFF7D8
:100498009BFF2C20FFF780FF03B0F0BD5C0000201D
:1004A8006000002000B583B000238DF8073000F00D
:1004B80003002B4B1870032813D8DFE800F0022143
:1004C8003240C0238DF807308023264A1380264AFD
:1004D8001380264B1A78264B1A70264B1A78264B0F
:1004E8001A70FFF733FF3620FFF756FF01210DF191
:1004F8000700FFF769FFFFF733FF03B05DF804FB60
:10050800A0238DF807308023174A1380154A1380DB
:10051800164B1A78184B1A70164B1A78144B1A7017
:10052800DFE780230F4A13800F4A13800F4B1A7896
:100538000F4B1A700F4B1A780F4B1A70D1E76023C4
:100548008DF807308023084A1380064A1380074B2A
:100558001A78094B1A70074B1A78054B1A70C0E7BE
:100568006200002068000020640000205D00002078
:100578005C000020610000206000002038B50546BE
:10058800FFF7E4FEFFF7F6FE0B4C2046FFF730FFBF
:1005980004F13800FFF72CFF04F14800FFF728FFAB
:1005A800064B02221A70064B03221A702846FFF7E0
:1005B80079FFFFF7D5FE38BDC01E00085D0000209A
:1005C80061000020134BB3F90030984204DA124B53
:1005D800B3F90030994200DB704770B582B0164617
:1005E8000D460446FFF7B2FEE0B2E9B24B1C421CCE
:1005F800DBB2D2B2FFF722FF330A8DF804308DF850
:100608000560022101A8FFF7DFFEFFF7A9FE02B08F
:1006180070BD00BF64000020680000202DE9F04193
:1006280082B01D46BDF82080254BB3F900309842B2
:1006380043DA04460F461646224AB2F90020914290
:100648003BDA311801398B4202DC9EB2361AB6B257
:10065800EB19013B9A4202DC95B2ED1BADB2FFF7F4
:1006680075FEE0B2F9B28219D2B24B19DBB2013B86
:10067800013ADBB2D2B2FFF7E1FE4FEA18238DF858
:1006880004308DF8058001224FF400714FF090403E
:1006980000F084FC0CE04FF0FF33022201A90A4865
:1006A80001F0B4FA013CA4B2002CF4D1013DADB282
:1006B8000DB13446F8E7FFF753FE02B0BDE8F0810C
:1006C8006400002068000020F80A0020F0B58BB014
:1006D8000024059406940794089409942B4BDA6C2B
:1006E80042F08002DA64DA6C02F080020192019A28
:1006F800DA6C42F00102DA64DA6C02F0010202926A
:10070800029ADA6C42F00402DA64DA6C02F004024B
:100718000392039ADA6C42F00202DA64DB6C03F0AB
:1007280002030493049B1A4F22468021384600F0A6
:1007380035FC22464FF400714FF0904000F02EFC3B
:10074800144E22464021304600F028FC80230593B1
:10075800012506950794089405A9384600F03AFB48
:100768004FF40073059306950794089405A94FF074
:10077800904000F02FFB40230593069507940894BA
:1007880005A9304600F026FB0BB0F0BD0010024072
:100798000008004800040048F0B587B00025C2E012
:1007A800654E73695B42736104EB44039E00B42396
:1007B80003FB0566614B334400269E6000960FFAE2
:1007C8008CF312B209B200B2FFF700FD01345A4BA4
:1007D800DB69A34240F3A68004EB44039A00B423E8
:1007E80003FB0522554B134493E8070006AB03E9C6
:1007F8000700059B012BE9D14F4A13685768D9199F
:100808000398814210DB92688618B1420CDC049987
:10081800494EF668B14207DADFF81CC1DCF810C0AF
:1008280001EB0C0E7645BBDBD91B884211DC424A32
:1008380092688618B1420CDC04993F4EF668B142C2
:1008480007DADFF8F4C0DCF810C001EB0C0E7645CF
:100858003ADB394AD668BA1904998A420FDBDFF8BD
:10086800D8C0DCF810C001EB0C0E724507DC8342DF
:1008780005DD314A926800EB020E73453BDBF61B3F
:10088800B142A3DC2C4A1769CA1996429EDC8342FE
:100898009CDD294A92688618B34297DA264EB369D6
:1008A8005B42B36104EB44039E00B42303FB05667B
:1008B800224B334400269E6000963BB212B209B226
:1008C80000B2FFF783FC81E71B4E73695B427361DB
:1008D80004EB44039E00B42303FB0566174B334423
:1008E80000269E6000960FFA8CF312B209B200B28D
:1008F800FFF76CFC6AE7104EB3695B42B36104EB27
:1009080044039E00B42303FB05660C4B33440026C6
:100918009E6000960FFA8CF312B209B200B2FFF78C
:1009280055FC53E70135044B1B6AAB4201DD00243B
:100938004DE707B0F0BD00BF000000206C000020AC
:1009480072B6FEE708B50F480F4B03604FF4827389
:100958004360002383604FF4E062C2600361436137
:100968004FF400728261C3610362436283620722AB
:10097800C26203630823436301F0D9F800B908BDD4
:10098800FFF7DEFFF80A00200030014000B597B0FD
:100998004022002106A801F07BFA0023009301936E
:1009A8000293039304931023059301230B9360236D
:1009B8000D9305A800F0EAFB90B90F2300930021DE
:1009C8000191029103910491684600F0FBFE48B939
:1009D8004FF4007000F0F0FA30B917B05DF804FB7E
:1009E800FFF7AEFFFFF7ACFFFFF7AAFFF0B583B044
:1009F80000F05EF9FFF7CAFFFFF768FEFFF7A2FFF6
:100A08000020FFF7BBFD0020FFF78CFC00262AE042
:100A1800544DAA68696A5018AB6A04FB0030043068
:100A2800DFF844C1630023449F00B42303FB06732B
:100A38000CEB03074CF803002B691944ED6A06FB1D
:100A4800015179600125BD604FF6E07500951BB234
:100A580012B209B200B2FFF7B9FB0134414BDB69AE
:100A6800A342D5DC01363F4B1B6AB34201DD0024AB
:100A7800F4E74FF4FC63009305231E2278213C2001
:100A8800FFF7A4FB40F2FF7304225A213220FFF73C
:100A9800AEFB00263C2500E00026FFF77DFE314C2A
:100AA80000230422B4F90C10B4F90000FFF79FFBEF
:100AB800E1687B2902DDA3695B42A361294B1868C1
:100AC800042801D07C2803D1264A53695B4253612C
:100AD800244B5A69104418609A691144D96040F24D
:100AE800FF73042209B200B2FFF781FB1EB9002D83
:100AF80001DB622D06DDCEB90A2DCDDD592DCCDD09
:100B08000126CAE7681C4FF4FC63009305231E22E4
:100B1800782100B2FFF75AFB002300930523012236
:100B2800782128B2FFF752FB0135E4E7002DE3DB1B
:100B3800622DE1DCACB2601E4FF4FC630093052328
:100B48001E22782100B2FFF741FB04F11D000023AB
:100B5800009305230122782100B2FFF737FB013DFE
:100B6800CAE700BF000000206C00002082B00A4BDA
:100B78001A6E42F001021A661A6E02F00102009221
:100B8800009A9A6D42F080529A659B6D03F08053EB
:100B98000193019B02B070470010024000B589B074
:100BA8000023039304930593069307930268144B59
:100BB8009A4202D009B05DF804FB03F560431A6E4F
:100BC80042F480521A661A6E02F480520192019A17
:100BD800DA6C42F00102DA64DB6C03F00103029381
:100BE800029BA02303930223049303230693052364
:100BF800079303A94FF0904000F0ECF8DAE700BF44
:100C080000300140FEE7FEE7FEE7FEE7FEE770473B
:100C18007047704708B500F05BF808BD0F49D1F878
:100C2800883043F47003C1F888300D4B1A6842F0DD
:100C380001021A60002098601A6822F0A85222F473
:100C480010221A604FF48052DA601A6822F4802267
:100C58001A6098614FF000638B60704700ED00E008
:100C680000100240104B1B780BB90120704710B5DB
:100C780004464FF47A70B0FBF3F30C4A1068B0FBEB
:100C8800F3F000F091F868B90F2C01D901200AE0BF
:100C9800002221464FF0FF3000F052F8024B5C6012
:100CA800002000E0012010BD3400002030000020AA
:100CB80010B5032000F032F80020FFF7D3FF10B181
:100CC8000124204610BD0446FFF750FFF9E7000055
:100CD800034B1B78034A11680B441360704700BF2D
:100CE800340000205C0B0020014B1868704700BFDF
:100CF8005C0B002038B50446FFF7F6FF0546B4F153
:100D0800FF3F02D0044B1B781C44FFF7EDFF401B4C
:100D1800A042FAD338BD00BF34000020074AD36888
:100D280023F4E0631B041B0C000200F4E06018438A
:100D380040F0BF6040F40030D060704700ED00E044
:100D480030B4174BDB68C3F30223C3F10704042C48
:100D580028BF04241D1D062D18D9033B4FF0FF356D
:100D680005FA04F421EA0401994005FA03F322EA9A
:100D78000303194300280BDB0901C9B200F16040E5
:100D880000F5614080F8001330BC70470023E5E7A8
:100D980000F00F000901C9B2024B1954F4E700BF73
:100DA80000ED00E014ED00E00138B0F1807F0AD2D8
:100DB800064B5860064AF02182F8231000209860FC
:100DC80007221A6070470120704700BF10E000E05A
:100DD80000ED00E0F0B583B000233FE0C66A26EAE4
:100DE8000406C5F3C0049C403443C4625FE0062493
:100DF80000E00024B4403C430235644E46F82540E8
:100E0800634C2568D44304EA05064F6817F4803F0D
:100E180001D042EA05065E4D2E606D6804EA0506BB
:100E28004F6817F4003F01D042EA0506584D6E603E
:100E3800AD6804EA05064F6817F4801F01D042EA3E
:100E48000506534DAE60ED682C404E6816F4001F41
:100E580001D042EA05044E4AD46001330A6832FAE6
:100E680003F400F0918001249C402240F5D04D68A5
:100E78006E1E012E03D9112D01D0122D12D18668B4
:100E88005F000325BD4026EA0506CD68BD40354311
:100E98008560466826EA04064D68C5F300159D403E
:100EA800354345604D6805F00306032E96D0C568A6
:100EB8005F000324BC40E44325408E68BE402E43B7
:100EC800C6604D68022D01D0122D13D1DE080836F8
:100ED80050F826E003F007054FEA850C0F2505FAC0
:100EE8000CF52EEA050E0D6905FA0CF545EA0E0516
:100EF80040F8265005682C404D6805F00305BD40B4
:100F08002C4304604C6814F0805FA6D0214C256EF9
:100F180045F001052566246E04F001040194019C46
:100F28009D08AE1C194C54F8267003F00304A60063
:100F38000F24B44027EA0407B0F1904F3FF459AFAB
:100F4800154CA04216D004F58064A04214D004F5D4
:100F58008064A04212D004F58064A04210D004F549
:100F68008064A0420ED004F58064A0423FF43FAFF5
:100F780007243FE701243DE702243BE7032439E740
:100F8800042437E7052435E703B0F0BD000001402D
:100F98000004014000100240000400480AB98162C0
:100FA8007047816170470000024B186800F4C06008
:100FB800704700BF00700040B0F5007F0FD01F4B96
:100FC8001B6803F4C063B3F5806F34D01B4A136801
:100FD80023F4C06343F48063136000207047174B09
:100FE8001B6803F4C063B3F5007F22D0134A13686B
:100FF80023F4C06343F400731360114B1A6832235F
:1010080003FB02F30F4AA2FB03239B0C013300E00E
:10101800013B0A4A526912F4806F01D0002BF7D1C4
:10102800064B5B6913F4806F01D1002070470320E1
:101038007047002070470020704700BF00700040D4
:101048003000002083DE1B4330B583B00546204BBB
:101058009B6D13F0805F0BD0FFF7A6FFB0F5007F04
:1010680017D0802D1FD82DD0702D2DD000211BE03A
:10107800174CA36D43F08053A365A36D03F0805311
:101088000193019BFFF790FFA36D23F08053A365A5
:10109800E4E7802D03D9A02D03D9022104E0002123
:1010A80002E0012100E003210A4A136823F0070344
:1010B8000B431360136803F007038B4206D001202B
:1010C80003B030BD0221EFE70121EDE70020F7E78B
:1010D8000010024000200240284A9368D26802F0BB
:1010E800030213F00C030AD00C2B06D0042B1FD0DC
:1010F800082B20D00020024610E0012AF6D11F4A12
:10110800126812F0080F0CD11C4AD2F89420C2F3CE
:1011180003221B4951F8222043B100200C2B0DD08B
:101128007047164A1268C2F30312F2E71046F5E751
:1011380014480022F2E714480022EFE70F4BDB685F
:1011480003F00303022B15D0032B15D00B4BD868E3
:10115800C0F302100130D968C1F3062102FB01F285
:10116800B2FBF0F2D868C0F3416001304000B2FB36
:10117800F0F0D5E7034AE9E7034AE7E70010024041
:10118800341F00080024F40000127A00002800F040
:101198000083F0B583B00446AF4B9D6805F00C059D
:1011A800DE6806F00306036813F0100F5BD0E5B1A4
:1011B8000C2D18D0A369002B00F0BC80A64A136838
:1011C80043F001031360FFF78FFD0746A24B1B682E
:1011D80013F0020F40F09B80FFF786FDC01B02282A
:1011E800F4D90323E1E2012EE4D19B4B1B6813F0F1
:1011F800020F03D0A369002B00F0CE82206A964B21
:101208001B6813F0080F5CD0934B1B6803F0F003C6
:1012180098425DD8904B1A6842F008021A601A6822
:1012280022F0F002216A0A431A605A6822F47F42C7
:10123800E16942EA01225A60002D61D0FFF74CFFB4
:10124800854B9B68C3F30313844AD35C03F01F03E5
:10125800D840834B1860834B1868FFF703FD03469B
:10126800002840F0A282236813F0010F00F081806B
:10127800082D75D00C2D71D06368B3F5803F00F050
:101288009780B3F5A02F00F09980734B1A6822F469
:1012980080321A601A6822F480221A606368002B70
:1012A80000F09980FFF720FD07466B4B1B6813F48D
:1012B800003F5ED1FFF718FDC01B6428F5D9032352
:1012C80073E2654BD3F894301B0903F0F0039FE7F2
:1012D800FFF7BAFE002840F061825F4B1A6842F0BF
:1012E80008021A601A6822F0F002216A0A431A609A
:1012F8005A6822F47F42E16942EA01225A609DE776
:10130800206AFFF7A1FE002898D001234DE2524B36
:101318001A6842F008021A601A6822F0F002216A7C
:101328000A431A605A6822F47F42E16942EA0122BC
:101338005A6098E7484A136823F001031360FFF7DF
:10134800D3FC0746444B1B6813F0020F8BD0FFF702
:10135800CBFCC01B0228F5D9032326E2032E8BD130
:101368003D4B1B6813F4003F03D06368002B00F06B
:101378001782236813F0020F4FD0042D3CD00C2D98
:1013880038D0E368002B78D0334A136843F480736D
:101398001360FFF7A9FC06462F4B1B6813F4806FF8
:1013A80062D1FFF7A1FC801B0228F5D90323FCE1D9
:1013B800294A136843F4803313606FE703F18043CD
:1013C800A3F53C331A6842F480221A601A6842F482
:1013D80080321A6062E7FFF787FC07461E4B1B68DE
:1013E80013F4003FC5D0FFF77FFCC01B6428F5D974
:1013F8000323DAE1022EC4D1174B1B6813F4806F64
:1014080003D0E368002B00F0CD81134A536823F022
:10141800F853216943EA01635360236813F0080F06
:1014280056D06369002B3CD00B4AD2F8943043F075
:101438000103C2F89430FFF757FC0646064BD3F871
:10144800943013F0020F43D1FFF74EFC801B0228A3
:10145800F4D90323A9E100BF00100240641F00086B
:101468003000002038000020B84A536823F0F853B1
:10147800216943EA01635360CFE7B44A136823F450
:1014880080731360FFF730FC0646B04B1B6813F4FB
:10149800806FC2D0FFF728FC801B0228F5D90323F0
:1014A80083E1AA4AD2F8943023F00103C2F89430B9
:1014B800FFF71AFC0646A54BD3F8943013F0020F39
:1014C80006D0FFF711FC801B0228F4D903236CE136
:1014D800236813F0040F7AD09C4B9B6D13F0805F48
:1014E8000BD19A4B9A6D42F080529A659B6D03F02E
:1014F80080530193019B012600E00026944B1B6852
:1015080013F4807F26D0A368012B37D0052B3DD05C
:101518008E4BD3F8902022F00102C3F89020D3F824
:10152800902022F00402C3F89020A368002B3BD03F
:10153800FFF7DAFB0746854BD3F8903013F0020F1C
:1015480044D1FFF7D1FBC01B41F288339842F2D94E
:1015580003232AE17E4A136843F480731360FFF77C
:10156800C3FB07467A4B1B6813F4807FCBD1FFF788
:10157800BBFBC01B0228F5D9032316E1734AD2F836
:10158800903043F00103C2F89030CEE76F4BD3F8A8
:10159800902042F00402C3F89020D3F8902042F043
:1015A8000102C3F89020C0E7FFF79EFB0746674B90
:1015B800D3F8903013F0020F08D0FFF795FBC01B4B
:1015C80041F288339842F2D90323EEE06EBBA36A56
:1015D800002B00F0E980022B2DD00C2D00F0EE80BE
:1015E8005A4B1A6822F080721A601B6813F0205F49
:1015F80004D1564AD36823F00303D360534AD3680F
:1016080023F0887323F48033D360FFF76DFB04461F
:101618004E4B1B6813F0007F00F0B980FFF764FBA6
:10162800001B0228F4D90323BFE0484A936D23F036
:1016380080539365CBE7454BDB6803F00301E26A0F
:1016480091420FD00C2D00F0B380404B1B6813F073
:10165800806F40F0AF803D4B1B6813F0805F2DD04A
:101668000123A2E003F07002216B0139B2EB011FE4
:10167800E8D103F4FE42616BB2EB012FE2D103F42F
:101688000031A26B073A18BF01229142DAD103F464
:10169800C001E26B5208013AB1EB425FD2D103F0CC
:1016A800C063226C5208013AB3EB426FCAD1274B90
:1016B8001B6813F0007F51D0002376E0234A13689B
:1016C80023F080731360FFF70FFB05461F4B1B6861
:1016D80013F0007F06D0FFF707FB401B0228F5D95F
:1016E800032362E0194AD3681A491940E36A206B58
:1016F800013843EA0013606B43EA0023E06B4008BB
:10170800013843EA4053206C4008013843EA4063FB
:10171800A06B000943EA40430B43D360136843F0CE
:1017280080731360D36843F08073D360FFF7DCFAEB
:101738000446064B1B6813F0007F0DD1FFF7D4FA5F
:10174800001B0228F5D903232FE000BF0010024038
:10175800007000408C809DF9002326E0184B1A6821
:1017680042F080721A60DA6842F08072DA60FFF73D
:10177800BBFA044604E0FFF7B7FA001B02281BD89F
:101788000F4B1B6813F0007FF5D000230DE00023FA
:101798000BE0012318467047012306E0012304E00B
:1017A800012302E0012300E00023184603B0F0BD46
:1017B8000123FAE70123F8E70323F6E70123F4E717
:1017C80000100240002800F09B8070B504464E4B84
:1017D8001B6803F007038B420CD24B4A136823F0B3
:1017E80007030B431360136803F007038B4201D010
:1017F800012070BD0D46236813F0010F39D06368CE
:10180800032B09D0022B26D063BB404A126812F082
:10181800020F06D10120ECE73C4A126812F0007F63
:1018280070D03A498A6822F0030213438B60FFF7AD
:101838005BFA0646354B9B6803F00C036268B3EB12
:10184800820F16D0FFF750FA801B41F28833984276
:10185800F0D90320CDE72D4A126812F4003FE0D1F9
:101868000120C6E7294A126812F4806FD9D10120F5
:10187800BFE7236813F0020F06D0244A936823F0C9
:10188800F003A1680B4393601F4B1B6803F0070329
:10189800AB420CD91C4A136823F007032B4313608F
:1018A800136803F00703AB4201D00120A1E72368C6
:1018B80013F0040F06D0154A936823F4E063E16837
:1018C8000B439360236813F0080F07D00F4A9368FF
:1018D80023F46053216943EAC1039360FFF7FCFBDB
:1018E8000A4B9B68C3F30313094AD35C03F01F0335
:1018F800D840084B1860084B1868FFF7B3F978E729
:1019080001207047012074E70020024000100240C7
:10191800641F000830000020380000202DE9F04343
:1019280083B004460F4616461D46FFF7DDF90A9BAD
:10193800181A00EB0508FFF7D7F981462A4B1B68F0
:10194800C3F3CB3308FB03F3019323689B6837EA9F
:1019580003030CBF01230023B34240D0B5F1FF3F7E
:10196800F3D0FFF7C1F9A0EB090040450AD2B8F15E
:10197800000F07D0019B0BB94FF00008019B013BFA
:101988000193E2E72268536823F0E0035360636839
:10199800B3F5827F0BD0A36AB3F5005F14D001239F
:1019A80084F85D30002384F85C30032018E0A368D5
:1019B800B3F5004F02D0B3F5806FECD122681368FD
:1019C80023F040031360E6E72268136823F400530A
:1019D80013602268136843F400531360DFE70020A4
:1019E80003B0BDE8F08300BF300000202DE9F043CC
:1019F80083B006460C4615461F46FFF775F90A9B45
:101A0800181A00EB0708FFF76FF981462D4B1B6882
:101A180003EB8303C3EBC3031B0D08FB03F3019321
:101A280002E0B7F1FF3F0BD1326893682340AB4225
:101A380044D0B4F5C06FF4D1002DF2D1137BF0E798
:101A4800FFF752F9A0EB090040450AD2B8F1000FA0
:101A580007D0019B0BB94FF00008019B013B019394
:101A6800E2E73268536823F0E00353607368B3F524
:101A7800827F0BD0B36AB3F5005F14D0012386F8D8
:101A88005D30002386F85C30032018E0B368B3F5B6
:101A9800004F02D0B3F5806FECD13268136823F0A1
:101AA80040031360E6E73268136823F400531360B9
:101AB8003268136843F400531360DFE7002003B073
:101AC800BDE8F0833000002070B582B004460D46B2
:101AD800164600920B4600224FF4C051FFF786FFCE
:101AE800B8B900962B46002280212046FFF716FF42
:101AF800B8B900962B4600224FF4C0612046FFF784
:101B080075FF034650B1236E43F020032366032379
:101B180004E0236E43F0200323660323184602B033
:101B280070BD236E43F0200323660323F6E70028E5
:101B38006AD010B50446436A33B94368B3F5827F67
:101B480005D00023C36102E0002303614361002341
:101B5800A36294F85D30002B4DD0022384F85D30E9
:101B68002268136823F040031360E368B3F5E06F5D
:101B780047D90022B3F5706F04D0B3F5E06F01D0F8
:101B88000023A362636803F48273A16801F404412B
:101B98000B43216901F002010B43616901F0010166
:101BA8000B43A16901F400710B43E16901F03801AD
:101BB8000B43216A01F080010B43A16A01F4005133
:101BC80020680B430360638B03F00403616A01F030
:101BD80010010B43616B01F008010B43E16801F44C
:101BE80070610B43216813434B600020206601237A
:101BF80084F85D3010BD84F85C302046FEF7CEFFD7
:101C0800ABE74FF48052B5E7012070472DE9F0416A
:101C180082B090F85C40012C00F0E9801E46154621
:101C280088460446012380F85C30FFF75DF80746D4
:101C380094F85D20D2B2012A09D00220012384F849
:101C48005D30002384F85C3002B0BDE8F081B8F163
:101C5800000F00F0BE80002D00F0BD80032384F843
:101C68005D3000232366C4F83880A587E5872364A0
:101C7800A4F84430A4F846302365E364A368B3F5B8
:101C8800004F1CD023681A6812F0400F03D11A685D
:101C980042F040021A60E368B3F5E06F38D9636830
:101CA8000BB1012D20D1A26B23681288DA60A36BD7
:101CB8000233A363E38F013B9BB2E38714E02268FE
:101CC800136823F0400313602268136843F48043C9
:101CD8001360D7E7FFF708F8C01BB04202D3B6F18C
:101CE800FF3F7AD1002E7AD0E38F9BB2002B5BD0D6
:101CF80023689A6812F0020FECD0A26B1288DA609F
:101D0800A36B0233A363E38F013B9BB2E387EBE74B
:101D180063680BB1012D30D1E38F9BB2012B0BD936
:101D2800A26B23681288DA60A36B0233A363E38F84
:101D3800023B9BB2E38720E0A26B236812781A73F8
:101D4800A36B0133A363E38F013B9BB2E38714E0EA
:101D5800A36B1B781373A36B0133A363E38F013B5E
:101D68009BB2E38709E0FEF7BFFFC01BB04202D376
:101D7800B6F1FF3F35D1002E35D0E38F9BB29BB132
:101D88002268936813F0020FEDD0E38F9BB2012B0A
:101D9800DED9A36B1B88D360A36B0233A363E38FE5
:101DA800023B9BB2E387E8E73A4631462046FFF715
:101DB8008BFE08B120232366A36833B901932368F7
:101DC800DA6801929B680193019B236E6BB900202E
:101DD80034E7012032E7012030E703202EE7032013
:101DE8002CE703202AE7032028E7012026E7022022
:101DF8002AE70000DFF834D0FEF710FF002103E0E7
:101E08000B4B5B58435004310A480B4B42189A421B
:101E1800F6D30A4A02E0002342F8043B084B9A42F0
:101E2800F9D300F011F8FEF7E1FDFEE7008001208C
:101E3800901F000800000020400000204000002003
:101E4800600B0020FEE7000070B50D4E0D4CA41B82
:101E5800A4100025A54209D10B4E0C4C00F020F827
:101E6800A41BA4100025A54205D170BD56F8253045
:101E780098470135EEE756F8253098470135F2E7DF
:101E8800801F0008801F0008801F0008841F0008AA
:101E980002440346934200D1704703F8011BF9E757
:101EA800F8B500BFF8BC08BC9E467047F8B500BF3F
:081EB800F8BC08BC9E4670470F
:101EC0000F0180961180FFB103012C2DB203012C6C
:101ED0002DB306012C2D012C2DB40107C003A20245
:101EE00084C101C5C2020A00C3028A2AC4028AEE62
:101EF000C5010E20003A0105022A040000007F2BD4
:101F0000040000007F00000004E010021C071237EC
:101F100032292D29252B3900010310E110031D075B
:101F2000062E2C292D2E2E373F0000021013800A7A
:101F300029806400A0860100400D0300801A06007D
:101F400000350C0040420F0080841E0000093D0057
:101F500000127A000024F40000366E010048E80107
:101F6000006CDC020000000000000000010203041D
:101F70000607080900000000010203040000000039
:081F8000AD01000800000000A3
:081F88008901000800000000BF
:101F900032000000040000000A0000005A000000A7
:101FA0000A00000002000000020000000B00000018
:101FB0000500000001000000010000000100000019
:101FC00000093D00010000001000000000000000BA
:0400000508001DFDD5
:00000001FF
